{
  "_format": "hh-sol-artifact-1",
  "contractName": "CollateralPoolToken",
  "sourceName": "contracts/collateralPool/implementation/CollateralPoolToken.sol",
  "abi": [
    {
      "inputs": [
        {
          "internalType": "address",
          "name": "_collateralPool",
          "type": "address"
        },
        {
          "internalType": "string",
          "name": "_tokenName",
          "type": "string"
        },
        {
          "internalType": "string",
          "name": "_tokenSymbol",
          "type": "string"
        }
      ],
      "stateMutability": "nonpayable",
      "type": "constructor"
    },
    {
      "inputs": [],
      "name": "AlreadyInitialized",
      "type": "error"
    },
    {
      "inputs": [],
      "name": "InsufficientNonTimelockedBalance",
      "type": "error"
    },
    {
      "inputs": [],
      "name": "InsufficientTransferableBalance",
      "type": "error"
    },
    {
      "inputs": [],
      "name": "OnlyAssetManager",
      "type": "error"
    },
    {
      "inputs": [],
      "name": "OnlyCollateralPool",
      "type": "error"
    },
    {
      "anonymous": false,
      "inputs": [
        {
          "indexed": false,
          "internalType": "address",
          "name": "previousAdmin",
          "type": "address"
        },
        {
          "indexed": false,
          "internalType": "address",
          "name": "newAdmin",
          "type": "address"
        }
      ],
      "name": "AdminChanged",
      "type": "event"
    },
    {
      "anonymous": false,
      "inputs": [
        {
          "indexed": true,
          "internalType": "address",
          "name": "owner",
          "type": "address"
        },
        {
          "indexed": true,
          "internalType": "address",
          "name": "spender",
          "type": "address"
        },
        {
          "indexed": false,
          "internalType": "uint256",
          "name": "value",
          "type": "uint256"
        }
      ],
      "name": "Approval",
      "type": "event"
    },
    {
      "anonymous": false,
      "inputs": [
        {
          "indexed": true,
          "internalType": "address",
          "name": "beacon",
          "type": "address"
        }
      ],
      "name": "BeaconUpgraded",
      "type": "event"
    },
    {
      "anonymous": false,
      "inputs": [
        {
          "indexed": true,
          "internalType": "address",
          "name": "from",
          "type": "address"
        },
        {
          "indexed": true,
          "internalType": "address",
          "name": "to",
          "type": "address"
        },
        {
          "indexed": false,
          "internalType": "uint256",
          "name": "value",
          "type": "uint256"
        }
      ],
      "name": "Transfer",
      "type": "event"
    },
    {
      "anonymous": false,
      "inputs": [
        {
          "indexed": true,
          "internalType": "address",
          "name": "implementation",
          "type": "address"
        }
      ],
      "name": "Upgraded",
      "type": "event"
    },
    {
      "inputs": [
        {
          "internalType": "address",
          "name": "owner",
          "type": "address"
        },
        {
          "internalType": "address",
          "name": "spender",
          "type": "address"
        }
      ],
      "name": "allowance",
      "outputs": [
        {
          "internalType": "uint256",
          "name": "",
          "type": "uint256"
        }
      ],
      "stateMutability": "view",
      "type": "function"
    },
    {
      "inputs": [
        {
          "internalType": "address",
          "name": "spender",
          "type": "address"
        },
        {
          "internalType": "uint256",
          "name": "amount",
          "type": "uint256"
        }
      ],
      "name": "approve",
      "outputs": [
        {
          "internalType": "bool",
          "name": "",
          "type": "bool"
        }
      ],
      "stateMutability": "nonpayable",
      "type": "function"
    },
    {
      "inputs": [
        {
          "internalType": "address",
          "name": "account",
          "type": "address"
        }
      ],
      "name": "balanceOf",
      "outputs": [
        {
          "internalType": "uint256",
          "name": "",
          "type": "uint256"
        }
      ],
      "stateMutability": "view",
      "type": "function"
    },
    {
      "inputs": [
        {
          "internalType": "address",
          "name": "_account",
          "type": "address"
        },
        {
          "internalType": "uint256",
          "name": "_amount",
          "type": "uint256"
        },
        {
          "internalType": "bool",
          "name": "_ignoreTimelocked",
          "type": "bool"
        }
      ],
      "name": "burn",
      "outputs": [],
      "stateMutability": "nonpayable",
      "type": "function"
    },
    {
      "inputs": [
        {
          "internalType": "address",
          "name": "_account",
          "type": "address"
        },
        {
          "internalType": "uint256",
          "name": "_maxTimelockedEntries",
          "type": "uint256"
        }
      ],
      "name": "cleanupExpiredTimelocks",
      "outputs": [
        {
          "internalType": "bool",
          "name": "_cleanedAllExpired",
          "type": "bool"
        }
      ],
      "stateMutability": "nonpayable",
      "type": "function"
    },
    {
      "inputs": [],
      "name": "collateralPool",
      "outputs": [
        {
          "internalType": "address",
          "name": "",
          "type": "address"
        }
      ],
      "stateMutability": "view",
      "type": "function"
    },
    {
      "inputs": [
        {
          "internalType": "address",
          "name": "_account",
          "type": "address"
        }
      ],
      "name": "debtFreeBalanceOf",
      "outputs": [
        {
          "internalType": "uint256",
          "name": "",
          "type": "uint256"
        }
      ],
      "stateMutability": "view",
      "type": "function"
    },
    {
      "inputs": [
        {
          "internalType": "address",
          "name": "_account",
          "type": "address"
        }
      ],
      "name": "debtLockedBalanceOf",
      "outputs": [
        {
          "internalType": "uint256",
          "name": "",
          "type": "uint256"
        }
      ],
      "stateMutability": "view",
      "type": "function"
    },
    {
      "inputs": [],
      "name": "decimals",
      "outputs": [
        {
          "internalType": "uint8",
          "name": "",
          "type": "uint8"
        }
      ],
      "stateMutability": "view",
      "type": "function"
    },
    {
      "inputs": [
        {
          "internalType": "address",
          "name": "spender",
          "type": "address"
        },
        {
          "internalType": "uint256",
          "name": "subtractedValue",
          "type": "uint256"
        }
      ],
      "name": "decreaseAllowance",
      "outputs": [
        {
          "internalType": "bool",
          "name": "",
          "type": "bool"
        }
      ],
      "stateMutability": "nonpayable",
      "type": "function"
    },
    {
      "inputs": [],
      "name": "implementation",
      "outputs": [
        {
          "internalType": "address",
          "name": "",
          "type": "address"
        }
      ],
      "stateMutability": "view",
      "type": "function"
    },
    {
      "inputs": [
        {
          "internalType": "address",
          "name": "spender",
          "type": "address"
        },
        {
          "internalType": "uint256",
          "name": "addedValue",
          "type": "uint256"
        }
      ],
      "name": "increaseAllowance",
      "outputs": [
        {
          "internalType": "bool",
          "name": "",
          "type": "bool"
        }
      ],
      "stateMutability": "nonpayable",
      "type": "function"
    },
    {
      "inputs": [
        {
          "internalType": "address",
          "name": "_collateralPool",
          "type": "address"
        },
        {
          "internalType": "string",
          "name": "_tokenName",
          "type": "string"
        },
        {
          "internalType": "string",
          "name": "_tokenSymbol",
          "type": "string"
        }
      ],
      "name": "initialize",
      "outputs": [],
      "stateMutability": "nonpayable",
      "type": "function"
    },
    {
      "inputs": [
        {
          "internalType": "address",
          "name": "_account",
          "type": "address"
        }
      ],
      "name": "lockedBalanceOf",
      "outputs": [
        {
          "internalType": "uint256",
          "name": "",
          "type": "uint256"
        }
      ],
      "stateMutability": "view",
      "type": "function"
    },
    {
      "inputs": [
        {
          "internalType": "address",
          "name": "_account",
          "type": "address"
        },
        {
          "internalType": "uint256",
          "name": "_amount",
          "type": "uint256"
        }
      ],
      "name": "mint",
      "outputs": [
        {
          "internalType": "uint256",
          "name": "_timelockExpiresAt",
          "type": "uint256"
        }
      ],
      "stateMutability": "nonpayable",
      "type": "function"
    },
    {
      "inputs": [],
      "name": "name",
      "outputs": [
        {
          "internalType": "string",
          "name": "",
          "type": "string"
        }
      ],
      "stateMutability": "view",
      "type": "function"
    },
    {
      "inputs": [
        {
          "internalType": "address",
          "name": "_account",
          "type": "address"
        }
      ],
      "name": "nonTimelockedBalanceOf",
      "outputs": [
        {
          "internalType": "uint256",
          "name": "",
          "type": "uint256"
        }
      ],
      "stateMutability": "view",
      "type": "function"
    },
    {
      "inputs": [],
      "name": "proxiableUUID",
      "outputs": [
        {
          "internalType": "bytes32",
          "name": "",
          "type": "bytes32"
        }
      ],
      "stateMutability": "view",
      "type": "function"
    },
    {
      "inputs": [
        {
          "internalType": "bytes4",
          "name": "_interfaceId",
          "type": "bytes4"
        }
      ],
      "name": "supportsInterface",
      "outputs": [
        {
          "internalType": "bool",
          "name": "",
          "type": "bool"
        }
      ],
      "stateMutability": "pure",
      "type": "function"
    },
    {
      "inputs": [],
      "name": "symbol",
      "outputs": [
        {
          "internalType": "string",
          "name": "",
          "type": "string"
        }
      ],
      "stateMutability": "view",
      "type": "function"
    },
    {
      "inputs": [
        {
          "internalType": "address",
          "name": "_account",
          "type": "address"
        }
      ],
      "name": "timelockedBalanceOf",
      "outputs": [
        {
          "internalType": "uint256",
          "name": "_timelocked",
          "type": "uint256"
        }
      ],
      "stateMutability": "view",
      "type": "function"
    },
    {
      "inputs": [],
      "name": "totalSupply",
      "outputs": [
        {
          "internalType": "uint256",
          "name": "",
          "type": "uint256"
        }
      ],
      "stateMutability": "view",
      "type": "function"
    },
    {
      "inputs": [
        {
          "internalType": "address",
          "name": "to",
          "type": "address"
        },
        {
          "internalType": "uint256",
          "name": "amount",
          "type": "uint256"
        }
      ],
      "name": "transfer",
      "outputs": [
        {
          "internalType": "bool",
          "name": "",
          "type": "bool"
        }
      ],
      "stateMutability": "nonpayable",
      "type": "function"
    },
    {
      "inputs": [
        {
          "internalType": "address",
          "name": "from",
          "type": "address"
        },
        {
          "internalType": "address",
          "name": "to",
          "type": "address"
        },
        {
          "internalType": "uint256",
          "name": "amount",
          "type": "uint256"
        }
      ],
      "name": "transferFrom",
      "outputs": [
        {
          "internalType": "bool",
          "name": "",
          "type": "bool"
        }
      ],
      "stateMutability": "nonpayable",
      "type": "function"
    },
    {
      "inputs": [
        {
          "internalType": "address",
          "name": "_account",
          "type": "address"
        }
      ],
      "name": "transferableBalanceOf",
      "outputs": [
        {
          "internalType": "uint256",
          "name": "",
          "type": "uint256"
        }
      ],
      "stateMutability": "view",
      "type": "function"
    },
    {
      "inputs": [
        {
          "internalType": "address",
          "name": "newImplementation",
          "type": "address"
        }
      ],
      "name": "upgradeTo",
      "outputs": [],
      "stateMutability": "nonpayable",
      "type": "function"
    },
    {
      "inputs": [
        {
          "internalType": "address",
          "name": "newImplementation",
          "type": "address"
        },
        {
          "internalType": "bytes",
          "name": "data",
          "type": "bytes"
        }
      ],
      "name": "upgradeToAndCall",
      "outputs": [],
      "stateMutability": "payable",
      "type": "function"
    }
  ],
  "bytecode": "0x60a06040523060805234801561001457600080fd5b5060405161248638038061248683398101604081905261003391610196565b8181600361004183826102a7565b50600461004e82826102a7565b50505061006283838361006a60201b60201c565b505050610365565b600954610100900460ff16156100925760405162dc149f60e41b815260040160405180910390fd5b6009805461ff001916610100179055600580546001600160a01b0385166001600160a01b031990911617905560066100ca83826102a7565b5060076100d782826102a7565b50505050565b634e487b7160e01b600052604160045260246000fd5b600082601f83011261010457600080fd5b81516001600160401b0381111561011d5761011d6100dd565b604051601f8201601f19908116603f011681016001600160401b038111828210171561014b5761014b6100dd565b60405281815283820160200185101561016357600080fd5b60005b8281101561018257602081860181015183830182015201610166565b506000918101602001919091529392505050565b6000806000606084860312156101ab57600080fd5b83516001600160a01b03811681146101c257600080fd5b60208501519093506001600160401b038111156101de57600080fd5b6101ea868287016100f3565b604086015190935090506001600160401b0381111561020857600080fd5b610214868287016100f3565b9150509250925092565b600181811c9082168061023257607f821691505b60208210810361025257634e487b7160e01b600052602260045260246000fd5b50919050565b601f8211156102a257806000526020600020601f840160051c8101602085101561027f5750805b601f840160051c820191505b8181101561029f576000815560010161028b565b50505b505050565b81516001600160401b038111156102c0576102c06100dd565b6102d4816102ce845461021e565b84610258565b6020601f82116001811461030857600083156102f05750848201515b600019600385901b1c1916600184901b17845561029f565b600084815260208120601f198516915b828110156103385787850151825560209485019460019092019101610318565b50848210156103565786840151600019600387901b60f8161c191681555b50505050600190811b01905550565b6080516120ea61039c6000396000818161063f0152818161068801528181610882015281816108c2015261093e01526120ea6000f3fe60806040526004361061019c5760003560e01c806370a08231116100ec578063a9059cbb1161008a578063d103be9911610064578063d103be9914610495578063dd62ed3e146104b5578063e5f71bda146104d5578063ff0eccf6146104f557600080fd5b8063a9059cbb14610435578063c3bb25a014610455578063c7d9f4d11461047557600080fd5b806388b58c72116100c657806388b58c72146103c057806390657147146103e057806395d89b4114610400578063a457c2d71461041557600080fd5b806370a082311461034a57806376fd4fdf146103805780637ee68fc4146103a057600080fd5b80633659cfe6116101595780634f1ef286116101335780634f1ef286146102d557806352d1902d146102e857806359355736146102fd5780635c60da1b1461031d57600080fd5b80633659cfe614610273578063395093511461029557806340c10f19146102b557600080fd5b806301ffc9a7146101a157806306fdde03146101d6578063095ea7b3146101f857806318160ddd1461021857806323b872dd14610237578063313ce56714610257575b600080fd5b3480156101ad57600080fd5b506101c16101bc366004611a8d565b610515565b60405190151581526020015b60405180910390f35b3480156101e257600080fd5b506101eb610567565b6040516101cd9190611adb565b34801561020457600080fd5b506101c1610213366004611b23565b6105f9565b34801561022457600080fd5b506002545b6040519081526020016101cd565b34801561024357600080fd5b506101c1610252366004611b4f565b610611565b34801561026357600080fd5b50604051601281526020016101cd565b34801561027f57600080fd5b5061029361028e366004611b90565b610635565b005b3480156102a157600080fd5b506101c16102b0366004611b23565b610706565b3480156102c157600080fd5b506102296102d0366004611b23565b610728565b6102936102e3366004611c3d565b610878565b3480156102f457600080fd5b50610229610931565b34801561030957600080fd5b50610229610318366004611b90565b6109e4565b34801561032957600080fd5b50610332610a16565b6040516001600160a01b0390911681526020016101cd565b34801561035657600080fd5b50610229610365366004611b90565b6001600160a01b031660009081526020819052604090205490565b34801561038c57600080fd5b5061029361039b366004611ca1565b610a25565b3480156103ac57600080fd5b506102296103bb366004611b90565b610a84565b3480156103cc57600080fd5b506102296103db366004611b90565b610af4565b3480156103ec57600080fd5b506102936103fb366004611d08565b610b27565b34801561040c57600080fd5b506101eb610b9a565b34801561042157600080fd5b506101c1610430366004611b23565b610ba9565b34801561044157600080fd5b506101c1610450366004611b23565b610c24565b34801561046157600080fd5b50610229610470366004611b90565b610c32565b34801561048157600080fd5b50610229610490366004611b90565b610c60565b3480156104a157600080fd5b506102296104b0366004611b90565b610c88565b3480156104c157600080fd5b506102296104d0366004611d83565b610d3d565b3480156104e157600080fd5b506101c16104f0366004611b23565b610d68565b34801561050157600080fd5b50600554610332906001600160a01b031681565b60006001600160e01b031982166301ffc9a760e01b148061054657506001600160e01b031982166336372b0760e01b145b8061056157506001600160e01b03198216634284fbcf60e11b145b92915050565b60606006805461057690611dbc565b80601f01602080910402602001604051908101604052809291908181526020018280546105a290611dbc565b80156105ef5780601f106105c4576101008083540402835291602001916105ef565b820191906000526020600020905b8154815290600101906020018083116105d257829003601f168201915b5050505050905090565b600033610607818585610e84565b5060019392505050565b60003361061f858285610fa8565b61062a85858561101c565b506001949350505050565b6001600160a01b037f00000000000000000000000000000000000000000000000000000000000000001630036106865760405162461bcd60e51b815260040161067d90611df6565b60405180910390fd5b7f00000000000000000000000000000000000000000000000000000000000000006001600160a01b03166106b86111cb565b6001600160a01b0316146106de5760405162461bcd60e51b815260040161067d90611e42565b6106e7816111e7565b6040805160008082526020820190925261070391839190611280565b50565b6000336106078185856107198383610d3d565b6107239190611ea4565b610e84565b6005546000906001600160a01b0316331461075657604051636f6afbb360e01b815260040160405180910390fd5b61076083836113eb565b600061076a6114b6565b90506107768142611ea4565b91506000811180156107885750600083115b15610871576001600160a01b03841660009081526008602052604090819020815180830190925290806107ba8661159a565b6001600160801b031681526020016107d185611607565b67ffffffffffffffff1690526001820180548391600091600160801b90046001600160801b031690601061080483611eb7565b82546101009290920a6001600160801b0381810219909316918316021790915590811682526020808301939093526040909101600020835181549490930151929091166001600160c01b031990931692909217600160801b67ffffffffffffffff90921691909102179055505b5092915050565b6001600160a01b037f00000000000000000000000000000000000000000000000000000000000000001630036108c05760405162461bcd60e51b815260040161067d90611df6565b7f00000000000000000000000000000000000000000000000000000000000000006001600160a01b03166108f26111cb565b6001600160a01b0316146109185760405162461bcd60e51b815260040161067d90611e42565b610921826111e7565b61092d82826001611280565b5050565b6000306001600160a01b037f000000000000000000000000000000000000000000000000000000000000000016146109d15760405162461bcd60e51b815260206004820152603860248201527f555550535570677261646561626c653a206d757374206e6f742062652063616c60448201527f6c6564207468726f7567682064656c656761746563616c6c0000000000000000606482015260840161067d565b5060008051602061206e83398151915290565b6000806109f083610af4565b905060006109fd84610c88565b9050808211610a0c5780610a0e565b815b949350505050565b6000610a206111cb565b905090565b6005546001600160a01b03163314610a5057604051636f6afbb360e01b815260040160405180910390fd5b8015610a64576009805460ff191660011790555b610a6e8383611670565b8015610a7f576009805460ff191690555b505050565b60055460405163c79d245d60e01b81526001600160a01b038381166004830152600092169063c79d245d906024015b602060405180830381865afa158015610ad0573d6000803e3d6000fd5b505050506040513d601f19601f820116820180604052508101906105619190611ee2565b600554604051630af15fdd60e11b81526001600160a01b03838116600483015260009216906315e2bfba90602401610ab3565b600954610100900460ff1615610b4f5760405162dc149f60e41b815260040160405180910390fd5b6009805461ff001916610100179055600580546001600160a01b0385166001600160a01b03199091161790556006610b878382611f49565b506007610b948282611f49565b50505050565b60606007805461057690611dbc565b60003381610bb78286610d3d565b905083811015610c175760405162461bcd60e51b815260206004820152602560248201527f45524332303a2064656372656173656420616c6c6f77616e63652062656c6f77604482015264207a65726f60d81b606482015260840161067d565b61062a8286868403610e84565b60003361060781858561101c565b6000610c3d82610c88565b6001600160a01b0383166000908152602081905260409020546105619190612008565b600080610c6c83610a84565b90506000610c7984610c32565b9050808210610a0c5780610a0e565b6001600160a01b038116600090815260086020526040812060018101546001600160801b03600160801b8204811691165b81811015610d0b576000818152602084905260409020805442600160801b90910467ffffffffffffffff161115610d02578054610cff906001600160801b031686611ea4565b94505b50600101610cb9565b506001600160a01b038416600090815260208190526040902054808410610d325780610d34565b835b95945050505050565b6001600160a01b03918216600090815260016020908152604080832093909416825291909152205490565b6001600160a01b038216600090815260086020526040812060018101546001600160801b0316825b84811015610e14576001830154600160801b90046001600160801b031682101580610dda575060008281526020849052604090205442600160801b90910467ffffffffffffffff16115b610e145782600083610deb8161201b565b908252602082019290925260400160002080546001600160c01b03191690559150600101610d90565b50610e1e8161159a565b6001830180546fffffffffffffffffffffffffffffffff19166001600160801b039283161790819055600160801b90041681101580610d34575060008181526020839052604090205442600160801b90910467ffffffffffffffff161195945050505050565b6001600160a01b038316610ee65760405162461bcd60e51b8152602060048201526024808201527f45524332303a20617070726f76652066726f6d20746865207a65726f206164646044820152637265737360e01b606482015260840161067d565b6001600160a01b038216610f475760405162461bcd60e51b815260206004820152602260248201527f45524332303a20617070726f766520746f20746865207a65726f206164647265604482015261737360f01b606482015260840161067d565b6001600160a01b0383811660008181526001602090815260408083209487168084529482529182902085905590518481527f8c5be1e5ebec7d5bd14f71427d1e84f3dd0314c0f7b2291e5b200ac8c7c3b925910160405180910390a3505050565b6000610fb48484610d3d565b90506000198114610b94578181101561100f5760405162461bcd60e51b815260206004820152601d60248201527f45524332303a20696e73756666696369656e7420616c6c6f77616e6365000000604482015260640161067d565b610b948484848403610e84565b6001600160a01b0383166110805760405162461bcd60e51b815260206004820152602560248201527f45524332303a207472616e736665722066726f6d20746865207a65726f206164604482015264647265737360d81b606482015260840161067d565b6001600160a01b0382166110e25760405162461bcd60e51b815260206004820152602360248201527f45524332303a207472616e7366657220746f20746865207a65726f206164647260448201526265737360e81b606482015260840161067d565b6110ed8383836117ae565b6001600160a01b038316600090815260208190526040902054818110156111655760405162461bcd60e51b815260206004820152602660248201527f45524332303a207472616e7366657220616d6f756e7420657863656564732062604482015265616c616e636560d01b606482015260840161067d565b6001600160a01b03848116600081815260208181526040808320878703905593871680835291849020805487019055925185815290927fddf252ad1be2c89b69c2b068fc378daa952ba7f163c4a11628f55a4df523b3ef910160405180910390a3610b94565b60008051602061206e833981519152546001600160a01b031690565b600554604080516394217ad160e01b815290516000926001600160a01b0316916394217ad19160048083019260209291908290030181865afa158015611231573d6000803e3d6000fd5b505050506040513d601f19601f820116820180604052508101906112559190612034565b9050336001600160a01b0382161461092d57604051636d5ab9d360e01b815260040160405180910390fd5b7f4910fdfa16fed3260ed0e7147f7cc6da11a60208b5b9406d12a635614ffd91435460ff16156112b357610a7f8361184a565b826001600160a01b03166352d1902d6040518163ffffffff1660e01b8152600401602060405180830381865afa92505050801561130d575060408051601f3d908101601f1916820190925261130a91810190611ee2565b60015b6113705760405162461bcd60e51b815260206004820152602e60248201527f45524331393637557067726164653a206e657720696d706c656d656e7461746960448201526d6f6e206973206e6f74205555505360901b606482015260840161067d565b60008051602061206e83398151915281146113df5760405162461bcd60e51b815260206004820152602960248201527f45524331393637557067726164653a20756e737570706f727465642070726f786044820152681a58589b195555525160ba1b606482015260840161067d565b50610a7f8383836118e6565b6001600160a01b0382166114415760405162461bcd60e51b815260206004820152601f60248201527f45524332303a206d696e7420746f20746865207a65726f206164647265737300604482015260640161067d565b61144d600083836117ae565b806002600082825461145f9190611ea4565b90915550506001600160a01b038216600081815260208181526040808320805486019055518481527fddf252ad1be2c89b69c2b068fc378daa952ba7f163c4a11628f55a4df523b3ef910160405180910390a35050565b600080600560009054906101000a90046001600160a01b03166001600160a01b03166394217ad16040518163ffffffff1660e01b8152600401602060405180830381865afa15801561150c573d6000803e3d6000fd5b505050506040513d601f19601f820116820180604052508101906115309190612034565b9050806001600160a01b031663177d03076040518163ffffffff1660e01b8152600401602060405180830381865afa158015611570573d6000803e3d6000fd5b505050506040513d601f19601f820116820180604052508101906115949190611ee2565b91505090565b60006001600160801b038211156116035760405162461bcd60e51b815260206004820152602760248201527f53616665436173743a2076616c756520646f65736e27742066697420696e20316044820152663238206269747360c81b606482015260840161067d565b5090565b600067ffffffffffffffff8211156116035760405162461bcd60e51b815260206004820152602660248201527f53616665436173743a2076616c756520646f65736e27742066697420696e203660448201526534206269747360d01b606482015260840161067d565b6001600160a01b0382166116d05760405162461bcd60e51b815260206004820152602160248201527f45524332303a206275726e2066726f6d20746865207a65726f206164647265736044820152607360f81b606482015260840161067d565b6116dc826000836117ae565b6001600160a01b038216600090815260208190526040902054818110156117505760405162461bcd60e51b815260206004820152602260248201527f45524332303a206275726e20616d6f756e7420657863656564732062616c616e604482015261636560f01b606482015260840161067d565b6001600160a01b0383166000818152602081815260408083208686039055600280548790039055518581529192917fddf252ad1be2c89b69c2b068fc378daa952ba7f163c4a11628f55a4df523b3ef910160405180910390a3505050565b6005546001600160a01b031633146117f05760006117cb84610a84565b9050808211156117ee5760405163407c3f3d60e01b815260040160405180910390fd5b505b60095460ff1615801561180b57506001600160a01b03831615155b15610a7f5761181b83600a610d68565b50600061182784610c32565b905080821115610b94576040516368c89f0b60e01b815260040160405180910390fd5b6001600160a01b0381163b6118b75760405162461bcd60e51b815260206004820152602d60248201527f455243313936373a206e657720696d706c656d656e746174696f6e206973206e60448201526c1bdd08184818dbdb9d1c9858dd609a1b606482015260840161067d565b60008051602061206e83398151915280546001600160a01b0319166001600160a01b0392909216919091179055565b6118ef8361190b565b6000825111806118fc5750805b15610a7f57610b94838361194b565b6119148161184a565b6040516001600160a01b038216907fbc7cd75a20ee27fd9adebab32041f755214dbc6bffa90cc0225b39da2e5c2d3b90600090a250565b6060611970838360405180606001604052806027815260200161208e60279139611977565b9392505050565b6060600080856001600160a01b0316856040516119949190612051565b600060405180830381855af49150503d80600081146119cf576040519150601f19603f3d011682016040523d82523d6000602084013e6119d4565b606091505b50915091506119e5868383876119ef565b9695505050505050565b60608315611a5e578251600003611a57576001600160a01b0385163b611a575760405162461bcd60e51b815260206004820152601d60248201527f416464726573733a2063616c6c20746f206e6f6e2d636f6e7472616374000000604482015260640161067d565b5081610a0e565b610a0e8383815115611a735781518083602001fd5b8060405162461bcd60e51b815260040161067d9190611adb565b600060208284031215611a9f57600080fd5b81356001600160e01b03198116811461197057600080fd5b60005b83811015611ad2578181015183820152602001611aba565b50506000910152565b6020815260008251806020840152611afa816040850160208701611ab7565b601f01601f19169190910160400192915050565b6001600160a01b038116811461070357600080fd5b60008060408385031215611b3657600080fd5b8235611b4181611b0e565b946020939093013593505050565b600080600060608486031215611b6457600080fd5b8335611b6f81611b0e565b92506020840135611b7f81611b0e565b929592945050506040919091013590565b600060208284031215611ba257600080fd5b813561197081611b0e565b634e487b7160e01b600052604160045260246000fd5b60008067ffffffffffffffff841115611bde57611bde611bad565b50604051601f19601f85018116603f0116810181811067ffffffffffffffff82111715611c0d57611c0d611bad565b604052838152905080828401851015611c2557600080fd5b83836020830137600060208583010152509392505050565b60008060408385031215611c5057600080fd5b8235611c5b81611b0e565b9150602083013567ffffffffffffffff811115611c7757600080fd5b8301601f81018513611c8857600080fd5b611c9785823560208401611bc3565b9150509250929050565b600080600060608486031215611cb657600080fd5b8335611cc181611b0e565b92506020840135915060408401358015158114611cdd57600080fd5b809150509250925092565b600082601f830112611cf957600080fd5b61197083833560208501611bc3565b600080600060608486031215611d1d57600080fd5b8335611d2881611b0e565b9250602084013567ffffffffffffffff811115611d4457600080fd5b611d5086828701611ce8565b925050604084013567ffffffffffffffff811115611d6d57600080fd5b611d7986828701611ce8565b9150509250925092565b60008060408385031215611d9657600080fd5b8235611da181611b0e565b91506020830135611db181611b0e565b809150509250929050565b600181811c90821680611dd057607f821691505b602082108103611df057634e487b7160e01b600052602260045260246000fd5b50919050565b6020808252602c908201527f46756e6374696f6e206d7573742062652063616c6c6564207468726f7567682060408201526b19195b1959d85d1958d85b1b60a21b606082015260800190565b6020808252602c908201527f46756e6374696f6e206d7573742062652063616c6c6564207468726f7567682060408201526b6163746976652070726f787960a01b606082015260800190565b634e487b7160e01b600052601160045260246000fd5b8082018082111561056157610561611e8e565b60006001600160801b0382166001600160801b038103611ed957611ed9611e8e565b60010192915050565b600060208284031215611ef457600080fd5b5051919050565b601f821115610a7f57806000526020600020601f840160051c81016020851015611f225750805b601f840160051c820191505b81811015611f425760008155600101611f2e565b5050505050565b815167ffffffffffffffff811115611f6357611f63611bad565b611f7781611f718454611dbc565b84611efb565b6020601f821160018114611fab5760008315611f935750848201515b600019600385901b1c1916600184901b178455611f42565b600084815260208120601f198516915b82811015611fdb5787850151825560209485019460019092019101611fbb565b5084821015611ff95786840151600019600387901b60f8161c191681555b50505050600190811b01905550565b8181038181111561056157610561611e8e565b60006001820161202d5761202d611e8e565b5060010190565b60006020828403121561204657600080fd5b815161197081611b0e565b60008251612063818460208701611ab7565b919091019291505056fe360894a13ba1a3210667c828492db98dca3e2076cc3735a920a3ca505d382bbc416464726573733a206c6f772d6c6576656c2064656c65676174652063616c6c206661696c6564a26469706673582212201616b73274b69bb1dff918ee233bfb74994c4c2451ad7cd69c88b68f581fd49b64736f6c634300081b0033",
  "linkReferences": {},
  "deployedLinkReferences": {}
}