{
  "_format": "hh-sol-artifact-1",
  "contractName": "CollateralPool",
  "sourceName": "contracts/collateralPool/implementation/CollateralPool.sol",
  "abi": [
    {
      "inputs": [
        {
          "internalType": "address",
          "name": "_agentVault",
          "type": "address"
        },
        {
          "internalType": "address",
          "name": "_assetManager",
          "type": "address"
        },
        {
          "internalType": "address",
          "name": "_fAsset",
          "type": "address"
        },
        {
          "internalType": "uint32",
          "name": "_exitCollateralRatioBIPS",
          "type": "uint32"
        }
      ],
      "stateMutability": "nonpayable",
      "type": "constructor"
    },
    {
      "inputs": [],
      "name": "AlreadyInitialized",
      "type": "error"
    },
    {
      "inputs": [],
      "name": "AmountOfCollateralTooLow",
      "type": "error"
    },
    {
      "inputs": [],
      "name": "AmountOfNatTooLow",
      "type": "error"
    },
    {
      "inputs": [],
      "name": "CannotDestroyPoolWithIssuedTokens",
      "type": "error"
    },
    {
      "inputs": [],
      "name": "CollateralAfterExitTooLow",
      "type": "error"
    },
    {
      "inputs": [],
      "name": "CollateralRatioFallsBelowExitCR",
      "type": "error"
    },
    {
      "inputs": [],
      "name": "DepositResultsInZeroTokens",
      "type": "error"
    },
    {
      "inputs": [],
      "name": "DivisionByZero",
      "type": "error"
    },
    {
      "inputs": [],
      "name": "FAssetAllowanceTooSmall",
      "type": "error"
    },
    {
      "inputs": [],
      "name": "FreeFAssetBalanceTooSmall",
      "type": "error"
    },
    {
      "inputs": [],
      "name": "InvalidRecipientAddress",
      "type": "error"
    },
    {
      "inputs": [],
      "name": "OnlyAgent",
      "type": "error"
    },
    {
      "inputs": [],
      "name": "OnlyAssetManager",
      "type": "error"
    },
    {
      "inputs": [],
      "name": "OnlyInternalUse",
      "type": "error"
    },
    {
      "inputs": [],
      "name": "PaymentLargerThanFeeDebt",
      "type": "error"
    },
    {
      "inputs": [],
      "name": "PoolTokenAlreadySet",
      "type": "error"
    },
    {
      "inputs": [],
      "name": "RedemptionRequiresClosingTooManyTickets",
      "type": "error"
    },
    {
      "inputs": [],
      "name": "ReentrancyGuardReentrantCall",
      "type": "error"
    },
    {
      "inputs": [],
      "name": "ReentrancyGuardRequired",
      "type": "error"
    },
    {
      "inputs": [],
      "name": "SentAmountTooLow",
      "type": "error"
    },
    {
      "inputs": [],
      "name": "TokenBalanceTooLow",
      "type": "error"
    },
    {
      "inputs": [],
      "name": "TokenShareIsZero",
      "type": "error"
    },
    {
      "inputs": [],
      "name": "TokenSupplyAfterExitTooLow",
      "type": "error"
    },
    {
      "inputs": [],
      "name": "TransferFailed",
      "type": "error"
    },
    {
      "inputs": [],
      "name": "WithdrawZeroFAsset",
      "type": "error"
    },
    {
      "inputs": [],
      "name": "ZeroFAssetDebtPayment",
      "type": "error"
    },
    {
      "anonymous": false,
      "inputs": [
        {
          "indexed": false,
          "internalType": "address",
          "name": "previousAdmin",
          "type": "address"
        },
        {
          "indexed": false,
          "internalType": "address",
          "name": "newAdmin",
          "type": "address"
        }
      ],
      "name": "AdminChanged",
      "type": "event"
    },
    {
      "anonymous": false,
      "inputs": [
        {
          "indexed": true,
          "internalType": "address",
          "name": "beacon",
          "type": "address"
        }
      ],
      "name": "BeaconUpgraded",
      "type": "event"
    },
    {
      "anonymous": false,
      "inputs": [
        {
          "indexed": false,
          "internalType": "uint256",
          "name": "amountNatWei",
          "type": "uint256"
        },
        {
          "indexed": false,
          "internalType": "uint8",
          "name": "rewardType",
          "type": "uint8"
        }
      ],
      "name": "CPClaimedReward",
      "type": "event"
    },
    {
      "anonymous": false,
      "inputs": [
        {
          "indexed": true,
          "internalType": "address",
          "name": "tokenHolder",
          "type": "address"
        },
        {
          "indexed": false,
          "internalType": "uint256",
          "name": "amountNatWei",
          "type": "uint256"
        },
        {
          "indexed": false,
          "internalType": "uint256",
          "name": "receivedTokensWei",
          "type": "uint256"
        },
        {
          "indexed": false,
          "internalType": "uint256",
          "name": "timelockExpiresAt",
          "type": "uint256"
        }
      ],
      "name": "CPEntered",
      "type": "event"
    },
    {
      "anonymous": false,
      "inputs": [
        {
          "indexed": true,
          "internalType": "address",
          "name": "tokenHolder",
          "type": "address"
        },
        {
          "indexed": false,
          "internalType": "uint256",
          "name": "burnedTokensWei",
          "type": "uint256"
        },
        {
          "indexed": false,
          "internalType": "uint256",
          "name": "receivedNatWei",
          "type": "uint256"
        }
      ],
      "name": "CPExited",
      "type": "event"
    },
    {
      "anonymous": false,
      "inputs": [
        {
          "indexed": true,
          "internalType": "address",
          "name": "tokenHolder",
          "type": "address"
        },
        {
          "indexed": false,
          "internalType": "int256",
          "name": "newFeeDebtUBA",
          "type": "int256"
        }
      ],
      "name": "CPFeeDebtChanged",
      "type": "event"
    },
    {
      "anonymous": false,
      "inputs": [
        {
          "indexed": true,
          "internalType": "address",
          "name": "tokenHolder",
          "type": "address"
        },
        {
          "indexed": false,
          "internalType": "uint256",
          "name": "paidFeesUBA",
          "type": "uint256"
        }
      ],
      "name": "CPFeeDebtPaid",
      "type": "event"
    },
    {
      "anonymous": false,
      "inputs": [
        {
          "indexed": true,
          "internalType": "address",
          "name": "tokenHolder",
          "type": "address"
        },
        {
          "indexed": false,
          "internalType": "uint256",
          "name": "withdrawnFeesUBA",
          "type": "uint256"
        }
      ],
      "name": "CPFeesWithdrawn",
      "type": "event"
    },
    {
      "anonymous": false,
      "inputs": [
        {
          "indexed": true,
          "internalType": "address",
          "name": "recipient",
          "type": "address"
        },
        {
          "indexed": false,
          "internalType": "uint256",
          "name": "paidNatWei",
          "type": "uint256"
        },
        {
          "indexed": false,
          "internalType": "uint256",
          "name": "burnedTokensWei",
          "type": "uint256"
        }
      ],
      "name": "CPPaidOut",
      "type": "event"
    },
    {
      "anonymous": false,
      "inputs": [
        {
          "indexed": true,
          "internalType": "address",
          "name": "tokenHolder",
          "type": "address"
        },
        {
          "indexed": false,
          "internalType": "uint256",
          "name": "burnedTokensWei",
          "type": "uint256"
        },
        {
          "indexed": false,
          "internalType": "uint256",
          "name": "receivedNatWei",
          "type": "uint256"
        },
        {
          "indexed": false,
          "internalType": "uint256",
          "name": "closedFAssetsUBA",
          "type": "uint256"
        }
      ],
      "name": "CPSelfCloseExited",
      "type": "event"
    },
    {
      "anonymous": false,
      "inputs": [
        {
          "indexed": true,
          "internalType": "address",
          "name": "implementation",
          "type": "address"
        }
      ],
      "name": "Upgraded",
      "type": "event"
    },
    {
      "inputs": [],
      "name": "MIN_NAT_BALANCE_AFTER_EXIT",
      "outputs": [
        {
          "internalType": "uint256",
          "name": "",
          "type": "uint256"
        }
      ],
      "stateMutability": "view",
      "type": "function"
    },
    {
      "inputs": [],
      "name": "MIN_NAT_TO_ENTER",
      "outputs": [
        {
          "internalType": "uint256",
          "name": "",
          "type": "uint256"
        }
      ],
      "stateMutability": "view",
      "type": "function"
    },
    {
      "inputs": [],
      "name": "MIN_TOKEN_SUPPLY_AFTER_EXIT",
      "outputs": [
        {
          "internalType": "uint256",
          "name": "",
          "type": "uint256"
        }
      ],
      "stateMutability": "view",
      "type": "function"
    },
    {
      "inputs": [],
      "name": "agentVault",
      "outputs": [
        {
          "internalType": "address",
          "name": "",
          "type": "address"
        }
      ],
      "stateMutability": "view",
      "type": "function"
    },
    {
      "inputs": [],
      "name": "assetManager",
      "outputs": [
        {
          "internalType": "contract IIAssetManager",
          "name": "",
          "type": "address"
        }
      ],
      "stateMutability": "view",
      "type": "function"
    },
    {
      "inputs": [
        {
          "internalType": "contract IDistributionToDelegators",
          "name": "_distribution",
          "type": "address"
        },
        {
          "internalType": "uint256",
          "name": "_month",
          "type": "uint256"
        }
      ],
      "name": "claimAirdropDistribution",
      "outputs": [
        {
          "internalType": "uint256",
          "name": "",
          "type": "uint256"
        }
      ],
      "stateMutability": "nonpayable",
      "type": "function"
    },
    {
      "inputs": [
        {
          "internalType": "contract IRewardManager",
          "name": "_rewardManager",
          "type": "address"
        },
        {
          "internalType": "uint24",
          "name": "_lastRewardEpoch",
          "type": "uint24"
        },
        {
          "components": [
            {
              "internalType": "bytes32[]",
              "name": "merkleProof",
              "type": "bytes32[]"
            },
            {
              "components": [
                {
                  "internalType": "uint24",
                  "name": "rewardEpochId",
                  "type": "uint24"
                },
                {
                  "internalType": "bytes20",
                  "name": "beneficiary",
                  "type": "bytes20"
                },
                {
                  "internalType": "uint120",
                  "name": "amount",
                  "type": "uint120"
                },
                {
                  "internalType": "enum RewardsV2Interface.ClaimType",
                  "name": "claimType",
                  "type": "uint8"
                }
              ],
              "internalType": "struct RewardsV2Interface.RewardClaim",
              "name": "body",
              "type": "tuple"
            }
          ],
          "internalType": "struct RewardsV2Interface.RewardClaimWithProof[]",
          "name": "_proofs",
          "type": "tuple[]"
        }
      ],
      "name": "claimDelegationRewards",
      "outputs": [
        {
          "internalType": "uint256",
          "name": "",
          "type": "uint256"
        }
      ],
      "stateMutability": "nonpayable",
      "type": "function"
    },
    {
      "inputs": [
        {
          "internalType": "address",
          "name": "_account",
          "type": "address"
        }
      ],
      "name": "debtFreeTokensOf",
      "outputs": [
        {
          "internalType": "uint256",
          "name": "",
          "type": "uint256"
        }
      ],
      "stateMutability": "view",
      "type": "function"
    },
    {
      "inputs": [
        {
          "internalType": "address",
          "name": "_account",
          "type": "address"
        }
      ],
      "name": "debtLockedTokensOf",
      "outputs": [
        {
          "internalType": "uint256",
          "name": "",
          "type": "uint256"
        }
      ],
      "stateMutability": "view",
      "type": "function"
    },
    {
      "inputs": [
        {
          "internalType": "address",
          "name": "_to",
          "type": "address"
        },
        {
          "internalType": "uint256",
          "name": "_bips",
          "type": "uint256"
        }
      ],
      "name": "delegate",
      "outputs": [],
      "stateMutability": "nonpayable",
      "type": "function"
    },
    {
      "inputs": [
        {
          "internalType": "address",
          "name": "_to",
          "type": "address"
        }
      ],
      "name": "delegateGovernance",
      "outputs": [],
      "stateMutability": "nonpayable",
      "type": "function"
    },
    {
      "inputs": [],
      "name": "depositNat",
      "outputs": [],
      "stateMutability": "payable",
      "type": "function"
    },
    {
      "inputs": [
        {
          "internalType": "address payable",
          "name": "_recipient",
          "type": "address"
        }
      ],
      "name": "destroy",
      "outputs": [],
      "stateMutability": "nonpayable",
      "type": "function"
    },
    {
      "inputs": [],
      "name": "enter",
      "outputs": [
        {
          "internalType": "uint256",
          "name": "",
          "type": "uint256"
        },
        {
          "internalType": "uint256",
          "name": "",
          "type": "uint256"
        }
      ],
      "stateMutability": "payable",
      "type": "function"
    },
    {
      "inputs": [
        {
          "internalType": "uint256",
          "name": "_tokenShare",
          "type": "uint256"
        }
      ],
      "name": "exit",
      "outputs": [
        {
          "internalType": "uint256",
          "name": "",
          "type": "uint256"
        }
      ],
      "stateMutability": "nonpayable",
      "type": "function"
    },
    {
      "inputs": [],
      "name": "exitCollateralRatioBIPS",
      "outputs": [
        {
          "internalType": "uint32",
          "name": "",
          "type": "uint32"
        }
      ],
      "stateMutability": "view",
      "type": "function"
    },
    {
      "inputs": [
        {
          "internalType": "uint256",
          "name": "_tokenShare",
          "type": "uint256"
        },
        {
          "internalType": "address payable",
          "name": "_recipient",
          "type": "address"
        }
      ],
      "name": "exitTo",
      "outputs": [
        {
          "internalType": "uint256",
          "name": "",
          "type": "uint256"
        }
      ],
      "stateMutability": "nonpayable",
      "type": "function"
    },
    {
      "inputs": [],
      "name": "fAsset",
      "outputs": [
        {
          "internalType": "contract IFAsset",
          "name": "",
          "type": "address"
        }
      ],
      "stateMutability": "view",
      "type": "function"
    },
    {
      "inputs": [
        {
          "internalType": "address",
          "name": "_account",
          "type": "address"
        }
      ],
      "name": "fAssetFeeDebtOf",
      "outputs": [
        {
          "internalType": "int256",
          "name": "",
          "type": "int256"
        }
      ],
      "stateMutability": "view",
      "type": "function"
    },
    {
      "inputs": [
        {
          "internalType": "uint256",
          "name": "_amount",
          "type": "uint256"
        }
      ],
      "name": "fAssetFeeDeposited",
      "outputs": [],
      "stateMutability": "nonpayable",
      "type": "function"
    },
    {
      "inputs": [
        {
          "internalType": "address",
          "name": "_account",
          "type": "address"
        }
      ],
      "name": "fAssetFeesOf",
      "outputs": [
        {
          "internalType": "uint256",
          "name": "",
          "type": "uint256"
        }
      ],
      "stateMutability": "view",
      "type": "function"
    },
    {
      "inputs": [
        {
          "internalType": "uint256",
          "name": "_tokenAmountWei",
          "type": "uint256"
        }
      ],
      "name": "fAssetRequiredForSelfCloseExit",
      "outputs": [
        {
          "internalType": "uint256",
          "name": "",
          "type": "uint256"
        }
      ],
      "stateMutability": "view",
      "type": "function"
    },
    {
      "inputs": [],
      "name": "implementation",
      "outputs": [
        {
          "internalType": "address",
          "name": "",
          "type": "address"
        }
      ],
      "stateMutability": "view",
      "type": "function"
    },
    {
      "inputs": [
        {
          "internalType": "address",
          "name": "_agentVault",
          "type": "address"
        },
        {
          "internalType": "address",
          "name": "_assetManager",
          "type": "address"
        },
        {
          "internalType": "address",
          "name": "_fAsset",
          "type": "address"
        },
        {
          "internalType": "uint32",
          "name": "_exitCollateralRatioBIPS",
          "type": "uint32"
        }
      ],
      "name": "initialize",
      "outputs": [],
      "stateMutability": "nonpayable",
      "type": "function"
    },
    {
      "inputs": [
        {
          "internalType": "contract IDistributionToDelegators",
          "name": "_distribution",
          "type": "address"
        }
      ],
      "name": "optOutOfAirdrop",
      "outputs": [],
      "stateMutability": "nonpayable",
      "type": "function"
    },
    {
      "inputs": [
        {
          "internalType": "uint256",
          "name": "_fAssets",
          "type": "uint256"
        }
      ],
      "name": "payFAssetFeeDebt",
      "outputs": [],
      "stateMutability": "nonpayable",
      "type": "function"
    },
    {
      "inputs": [
        {
          "internalType": "address",
          "name": "_recipient",
          "type": "address"
        },
        {
          "internalType": "uint256",
          "name": "_amount",
          "type": "uint256"
        },
        {
          "internalType": "uint256",
          "name": "_agentResponsibilityWei",
          "type": "uint256"
        }
      ],
      "name": "payout",
      "outputs": [],
      "stateMutability": "nonpayable",
      "type": "function"
    },
    {
      "inputs": [],
      "name": "poolToken",
      "outputs": [
        {
          "internalType": "contract ICollateralPoolToken",
          "name": "",
          "type": "address"
        }
      ],
      "stateMutability": "view",
      "type": "function"
    },
    {
      "inputs": [],
      "name": "proxiableUUID",
      "outputs": [
        {
          "internalType": "bytes32",
          "name": "",
          "type": "bytes32"
        }
      ],
      "stateMutability": "view",
      "type": "function"
    },
    {
      "inputs": [
        {
          "internalType": "uint256",
          "name": "_tokenShare",
          "type": "uint256"
        },
        {
          "internalType": "bool",
          "name": "_redeemToCollateral",
          "type": "bool"
        },
        {
          "internalType": "string",
          "name": "_redeemerUnderlyingAddress",
          "type": "string"
        },
        {
          "internalType": "address payable",
          "name": "_executor",
          "type": "address"
        }
      ],
      "name": "selfCloseExit",
      "outputs": [],
      "stateMutability": "payable",
      "type": "function"
    },
    {
      "inputs": [
        {
          "internalType": "uint256",
          "name": "_tokenShare",
          "type": "uint256"
        },
        {
          "internalType": "bool",
          "name": "_redeemToCollateral",
          "type": "bool"
        },
        {
          "internalType": "address payable",
          "name": "_recipient",
          "type": "address"
        },
        {
          "internalType": "string",
          "name": "_redeemerUnderlyingAddress",
          "type": "string"
        },
        {
          "internalType": "address payable",
          "name": "_executor",
          "type": "address"
        }
      ],
      "name": "selfCloseExitTo",
      "outputs": [],
      "stateMutability": "payable",
      "type": "function"
    },
    {
      "inputs": [
        {
          "internalType": "uint256",
          "name": "_exitCollateralRatioBIPS",
          "type": "uint256"
        }
      ],
      "name": "setExitCollateralRatioBIPS",
      "outputs": [],
      "stateMutability": "nonpayable",
      "type": "function"
    },
    {
      "inputs": [
        {
          "internalType": "address",
          "name": "_poolToken",
          "type": "address"
        }
      ],
      "name": "setPoolToken",
      "outputs": [],
      "stateMutability": "nonpayable",
      "type": "function"
    },
    {
      "inputs": [
        {
          "internalType": "bytes4",
          "name": "_interfaceId",
          "type": "bytes4"
        }
      ],
      "name": "supportsInterface",
      "outputs": [
        {
          "internalType": "bool",
          "name": "",
          "type": "bool"
        }
      ],
      "stateMutability": "pure",
      "type": "function"
    },
    {
      "inputs": [],
      "name": "token",
      "outputs": [
        {
          "internalType": "contract IICollateralPoolToken",
          "name": "",
          "type": "address"
        }
      ],
      "stateMutability": "view",
      "type": "function"
    },
    {
      "inputs": [],
      "name": "totalCollateral",
      "outputs": [
        {
          "internalType": "uint256",
          "name": "",
          "type": "uint256"
        }
      ],
      "stateMutability": "view",
      "type": "function"
    },
    {
      "inputs": [],
      "name": "totalFAssetFeeDebt",
      "outputs": [
        {
          "internalType": "int256",
          "name": "",
          "type": "int256"
        }
      ],
      "stateMutability": "view",
      "type": "function"
    },
    {
      "inputs": [],
      "name": "totalFAssetFees",
      "outputs": [
        {
          "internalType": "uint256",
          "name": "",
          "type": "uint256"
        }
      ],
      "stateMutability": "view",
      "type": "function"
    },
    {
      "inputs": [],
      "name": "undelegateAll",
      "outputs": [],
      "stateMutability": "nonpayable",
      "type": "function"
    },
    {
      "inputs": [],
      "name": "undelegateGovernance",
      "outputs": [],
      "stateMutability": "nonpayable",
      "type": "function"
    },
    {
      "inputs": [
        {
          "internalType": "address",
          "name": "newImplementation",
          "type": "address"
        }
      ],
      "name": "upgradeTo",
      "outputs": [],
      "stateMutability": "nonpayable",
      "type": "function"
    },
    {
      "inputs": [
        {
          "internalType": "address",
          "name": "newImplementation",
          "type": "address"
        },
        {
          "internalType": "bytes",
          "name": "data",
          "type": "bytes"
        }
      ],
      "name": "upgradeToAndCall",
      "outputs": [],
      "stateMutability": "payable",
      "type": "function"
    },
    {
      "inputs": [
        {
          "internalType": "contract IWNat",
          "name": "_newWNat",
          "type": "address"
        }
      ],
      "name": "upgradeWNatContract",
      "outputs": [],
      "stateMutability": "nonpayable",
      "type": "function"
    },
    {
      "inputs": [
        {
          "internalType": "address",
          "name": "_account",
          "type": "address"
        }
      ],
      "name": "virtualFAssetOf",
      "outputs": [
        {
          "internalType": "uint256",
          "name": "",
          "type": "uint256"
        }
      ],
      "stateMutability": "view",
      "type": "function"
    },
    {
      "inputs": [],
      "name": "wNat",
      "outputs": [
        {
          "internalType": "contract IWNat",
          "name": "",
          "type": "address"
        }
      ],
      "stateMutability": "view",
      "type": "function"
    },
    {
      "inputs": [
        {
          "internalType": "uint256",
          "name": "_fAssets",
          "type": "uint256"
        }
      ],
      "name": "withdrawFees",
      "outputs": [],
      "stateMutability": "nonpayable",
      "type": "function"
    },
    {
      "inputs": [
        {
          "internalType": "uint256",
          "name": "_fAssets",
          "type": "uint256"
        },
        {
          "internalType": "address",
          "name": "_recipient",
          "type": "address"
        }
      ],
      "name": "withdrawFeesTo",
      "outputs": [],
      "stateMutability": "nonpayable",
      "type": "function"
    },
    {
      "stateMutability": "payable",
      "type": "receive"
    }
  ],
  "bytecode": "0x60a06040523060805234801561001457600080fd5b50604051614b9a380380614b9a833981016040819052610033916101c9565b61003f84848484610048565b50505050610255565b600454600160f81b900460ff16156100725760405162dc149f60e41b815260040160405180910390fd5b600480546001600160f81b0316600160f81b179055600080546001600160a01b038087166001600160a01b03199283161790925560018054868416908316811790915560028054938616939092169290921790556100d1576000610148565b600160009054906101000a90046001600160a01b03166001600160a01b031663b5a488a66040518163ffffffff1660e01b8152600401602060405180830381865afa158015610124573d6000803e3d6000fd5b505050506040513d601f19601f820116820180604052508101906101489190610231565b600480546001600160a01b03929092166001600160c01b031990921691909117600160a01b63ffffffff841602179055610180610186565b50505050565b6101af60017f0cd2207518cd3e5213e2c6dbe63d55b60aa893c194a427b7d7f1600408fd5bde55565b565b6001600160a01b03811681146101c657600080fd5b50565b600080600080608085870312156101df57600080fd5b84516101ea816101b1565b60208601519094506101fb816101b1565b604086015190935061020c816101b1565b606086015190925063ffffffff8116811461022657600080fd5b939692955090935050565b60006020828403121561024357600080fd5b815161024e816101b1565b9392505050565b60805161490e61028c60003960008181610cc601528181610d0f015281816110060152818161104601526110c2015261490e6000f3fe60806040526004361061028b5760003560e01c8063868c3ba71161015a578063c79d245d116100c1578063e4df73f01161007a578063e4df73f014610789578063e97dcb621461079c578063ee781db0146107b9578063f4d000b2146107d9578063fc0c546a146107f9578063fd86d3ea1461081957600080fd5b8063c79d245d146106d7578063cb209413146106f7578063cbabdf391461072d578063cbdf382c14610743578063ce83b10c14610761578063d1b8890e1461078157600080fd5b80639edbf007116101135780639edbf00714610642578063a854a6a214610662578063adf58c1514610682578063b302f393146106a2578063b9e2648314610336578063c1b0bbf8146106b757600080fd5b8063868c3ba71461059757806386ac57a2146105b757806387a2a0dc146105d75780638e819e54146105ec578063923f89321461060c57806394217ad11461062257600080fd5b80634ac8eb5f116101fe578063787b9ca8116101b7578063787b9ca8146104e45780637a68a508146105045780637c7db1a5146105245780637f8661a11461054457806380f13ee914610564578063815ea9d61461057757600080fd5b80634ac8eb5f146104395780634f1ef2861461044f57806352d1902d1461046257806359c3d549146104775780635c60da1b146104975780635e318e07146104c457600080fd5b806315e2bfba1161025057806315e2bfba146103605780631b92d84a1461038057806333ce01fd146103a05780633659cfe6146103c05780633cfc747d146103e0578063406c70071461041957600080fd5b8062f55d9d146102c157806301ffc9a7146102e1578063026e402b146103165780630ac07344146103365780630dc1e5e11461033657600080fd5b366102bc57600454600160f01b900460ff166102ba57604051634c5eb24160e01b815260040160405180910390fd5b005b600080fd5b3480156102cd57600080fd5b506102ba6102dc366004614003565b610839565b3480156102ed57600080fd5b506103016102fc366004614020565b610a45565b60405190151581526020015b60405180910390f35b34801561032257600080fd5b506102ba61033136600461404a565b610a97565b34801561034257600080fd5b50610352670de0b6b3a764000081565b60405190815260200161030d565b34801561036c57600080fd5b5061035261037b366004614003565b610b29565b34801561038c57600080fd5b5061035261039b366004614076565b610bab565b3480156103ac57600080fd5b506102ba6103bb366004614003565b610c45565b3480156103cc57600080fd5b506102ba6103db366004614003565b610cbc565b3480156103ec57600080fd5b5060045461040490600160a01b900463ffffffff1681565b60405163ffffffff909116815260200161030d565b34801561042557600080fd5b5061035261043436600461404a565b610d8a565b34801561044557600080fd5b5061035260085481565b6102ba61045d36600461411f565b610ffc565b34801561046e57600080fd5b506103526110b5565b34801561048357600080fd5b50610352610492366004614196565b611168565b3480156104a357600080fd5b506104ac6113dd565b6040516001600160a01b03909116815260200161030d565b3480156104d057600080fd5b506102ba6104df366004614076565b6113ec565b3480156104f057600080fd5b506102ba6104ff366004614076565b611406565b34801561051057600080fd5b506102ba61051f366004614003565b61145d565b34801561053057600080fd5b506002546104ac906001600160a01b031681565b34801561055057600080fd5b5061035261055f366004614076565b61154e565b6102ba61057236600461425a565b611571565b34801561058357600080fd5b506000546104ac906001600160a01b031681565b3480156105a357600080fd5b506102ba6105b23660046142db565b6115e6565b3480156105c357600080fd5b506102ba6105d2366004614003565b611600565b3480156105e357600080fd5b506102ba611689565b3480156105f857600080fd5b506102ba61060736600461430b565b61176e565b34801561061857600080fd5b5061035260065481565b34801561062e57600080fd5b506001546104ac906001600160a01b031681565b34801561064e57600080fd5b506004546104ac906001600160a01b031681565b34801561066e57600080fd5b506102ba61067d366004614076565b6118a6565b34801561068e57600080fd5b506102ba61069d366004614370565b6118eb565b3480156106ae57600080fd5b506102ba611b31565b3480156106c357600080fd5b506103526106d2366004614003565b611b9a565b3480156106e357600080fd5b506103526106f2366004614003565b611ba5565b34801561070357600080fd5b50610352610712366004614003565b6001600160a01b031660009081526005602052604090205490565b34801561073957600080fd5b5061035260075481565b34801561074f57600080fd5b506003546001600160a01b03166104ac565b34801561076d57600080fd5b5061035261077c3660046142db565b611bb0565b6102ba611bce565b6102ba6107973660046143a5565b611c13565b6107a4611c30565b6040805192835260208301919091520161030d565b3480156107c557600080fd5b506102ba6107d4366004614076565b611e79565b3480156107e557600080fd5b506102ba6107f4366004614003565b611fbc565b34801561080557600080fd5b506003546104ac906001600160a01b031681565b34801561082557600080fd5b50610352610834366004614003565b6121dd565b6001546001600160a01b0316331461086457604051636d5ab9d360e01b815260040160405180910390fd5b61086c6121e8565b600360009054906101000a90046001600160a01b03166001600160a01b03166318160ddd6040518163ffffffff1660e01b8152600401602060405180830381865afa1580156108bf573d6000803e3d6000fd5b505050506040513d601f19601f820116820180604052508101906108e39190614406565b1561090157604051633645363160e11b815260040160405180910390fd5b600454610918906001600160a01b03168247612232565b600480546040516370a0823160e01b815230928101929092526000916001600160a01b03909116906370a0823190602401602060405180830381865afa158015610966573d6000803e3d6000fd5b505050506040513d601f19601f8201168201806040525081019061098a9190614406565b6002546040516370a0823160e01b81523060048201529192506000916001600160a01b03909116906370a0823190602401602060405180830381865afa1580156109d8573d6000803e3d6000fd5b505050506040513d601f19601f820116820180604052508101906109fc9190614406565b90508115610a1b57600454610a1b906001600160a01b0316848461229a565b8015610a3857600254610a38906001600160a01b0316848361229a565b5050610a426122fd565b50565b60006001600160e01b031982166301ffc9a760e01b1480610a7657506001600160e01b03198216630286f88760e51b145b80610a9157506001600160e01b03198216635986397960e11b145b92915050565b610aa033612323565b610abd57604051637362044160e01b815260040160405180910390fd5b6004805460405163026e402b60e01b81526001600160a01b03858116938201939093526024810184905291169063026e402b90604401600060405180830381600087803b158015610b0d57600080fd5b505af1158015610b21573d6000803e3d6000fd5b505050505050565b6003546040516370a0823160e01b81526001600160a01b038381166004830152600092610a91929116906370a0823190602401602060405180830381865afa158015610b79573d6000803e3d6000fd5b505050506040513d601f19601f82011682018060405250810190610b9d9190614406565b610ba68461239d565b61250e565b600080610c3383600360009054906101000a90046001600160a01b03166001600160a01b03166318160ddd6040518163ffffffff1660e01b8152600401602060405180830381865afa158015610c05573d6000803e3d6000fd5b505050506040513d601f19601f82011682018060405250810190610c299190614406565b6008549190612528565b9050610c3e8161262c565b9392505050565b6001546001600160a01b03163314610c7057604051636d5ab9d360e01b815260040160405180910390fd5b6003546001600160a01b031615610c9a5760405163983d334d60e01b815260040160405180910390fd5b600380546001600160a01b0319166001600160a01b0392909216919091179055565b6001600160a01b037f0000000000000000000000000000000000000000000000000000000000000000163003610d0d5760405162461bcd60e51b8152600401610d049061441f565b60405180910390fd5b7f00000000000000000000000000000000000000000000000000000000000000006001600160a01b0316610d3f612752565b6001600160a01b031614610d655760405162461bcd60e51b8152600401610d049061446b565b610d6e8161276e565b60408051600080825260208201909252610a4291839190612799565b6000610d9533612323565b610db257604051637362044160e01b815260040160405180910390fd5b610dba6121e8565b600480546040516370a0823160e01b815230928101929092526000916001600160a01b03909116906370a0823190602401602060405180830381865afa158015610e08573d6000803e3d6000fd5b505050506040513d601f19601f82011682018060405250810190610e2c9190614406565b60405163596090c960e11b81523060048201819052602482015260448101859052600160648201529091506001600160a01b0385169063b2c12192906084016020604051808303816000875af1158015610e8a573d6000803e3d6000fd5b505050506040513d601f19601f82011682018060405250810190610eae9190614406565b50600480546040516370a0823160e01b815230928101929092526000916001600160a01b03909116906370a0823190602401602060405180830381865afa158015610efd573d6000803e3d6000fd5b505050506040513d601f19601f82011682018060405250810190610f219190614406565b90506000610f2f83836144cd565b90508060086000828254610f4391906144e0565b90915550506001546000546004805460405163053fe26160e31b81526001600160a01b0393841692810192909252821660248201529116906329ff130890604401600060405180830381600087803b158015610f9e57600080fd5b505af1158015610fb2573d6000803e3d6000fd5b505060408051848152600060208201527f955e716bbd4b5c26281476b84511cb2b515eca1ea095b1e18dd09afbeade5e60935001905060405180910390a192505050610a916122fd565b6001600160a01b037f00000000000000000000000000000000000000000000000000000000000000001630036110445760405162461bcd60e51b8152600401610d049061441f565b7f00000000000000000000000000000000000000000000000000000000000000006001600160a01b0316611076612752565b6001600160a01b03161461109c5760405162461bcd60e51b8152600401610d049061446b565b6110a58261276e565b6110b182826001612799565b5050565b6000306001600160a01b037f000000000000000000000000000000000000000000000000000000000000000016146111555760405162461bcd60e51b815260206004820152603860248201527f555550535570677261646561626c653a206d757374206e6f742062652063616c60448201527f6c6564207468726f7567682064656c656761746563616c6c00000000000000006064820152608401610d04565b5060008051602061489283398151915290565b600061117333612323565b61119057604051637362044160e01b815260040160405180910390fd5b6111986121e8565b600480546040516370a0823160e01b815230928101929092526000916001600160a01b03909116906370a0823190602401602060405180830381865afa1580156111e6573d6000803e3d6000fd5b505050506040513d601f19601f8201168201806040525081019061120a9190614406565b604051638e33aba560e01b81529091506001600160a01b03871690638e33aba59061124490309081908a906001908b908b9060040161458e565b6020604051808303816000875af1158015611263573d6000803e3d6000fd5b505050506040513d601f19601f820116820180604052508101906112879190614406565b50600480546040516370a0823160e01b815230928101929092526000916001600160a01b03909116906370a0823190602401602060405180830381865afa1580156112d6573d6000803e3d6000fd5b505050506040513d601f19601f820116820180604052508101906112fa9190614406565b9050600061130883836144cd565b9050806008600082825461131c91906144e0565b90915550506001546000546004805460405163053fe26160e31b81526001600160a01b0393841692810192909252821660248201529116906329ff130890604401600060405180830381600087803b15801561137757600080fd5b505af115801561138b573d6000803e3d6000fd5b505060408051848152600160208201527f955e716bbd4b5c26281476b84511cb2b515eca1ea095b1e18dd09afbeade5e60935001905060405180910390a1925050506113d56122fd565b949350505050565b60006113e7612752565b905090565b6113f46121e8565b6113fe8133612904565b610a426122fd565b6001546001600160a01b0316331461143157604051636d5ab9d360e01b815260040160405180910390fd5b61143a816129a2565b600460146101000a81548163ffffffff021916908363ffffffff16021790555050565b61146633612323565b61148357604051637362044160e01b815260040160405180910390fd5b6004805460408051638c2b8ae160e01b815290516001600160a01b0390921692638c2b8ae19282820192602092908290030181865afa1580156114ca573d6000803e3d6000fd5b505050506040513d601f19601f820116820180604052508101906114ee91906146ad565b6040516317066a5760e21b81526001600160a01b0383811660048301529190911690635c19a95c90602401600060405180830381600087803b15801561153357600080fd5b505af1158015611547573d6000803e3d6000fd5b5050505050565b60006115586121e8565b6115628233612a0b565b905061156c6122fd565b919050565b6115796121e8565b6001600160a01b0383161580159061159a57506001600160a01b0383163014155b80156115b457506000546001600160a01b03848116911614155b6115d15760405163226ccff560e11b815260040160405180910390fd5b6115de8585858585612c3c565b6115476122fd565b6115ee6121e8565b6115f88282612904565b6110b16122fd565b61160933612323565b61162657604051637362044160e01b815260040160405180910390fd5b61162e6121e8565b806001600160a01b031663f2a1f7676040518163ffffffff1660e01b8152600401600060405180830381600087803b15801561166957600080fd5b505af115801561167d573d6000803e3d6000fd5b50505050610a426122fd565b61169233612323565b6116af57604051637362044160e01b815260040160405180910390fd5b6004805460408051638c2b8ae160e01b815290516001600160a01b0390921692638c2b8ae19282820192602092908290030181865afa1580156116f6573d6000803e3d6000fd5b505050506040513d601f19601f8201168201806040525081019061171a91906146ad565b6001600160a01b03166392ab89bb6040518163ffffffff1660e01b8152600401600060405180830381600087803b15801561175457600080fd5b505af1158015611768573d6000803e3d6000fd5b50505050565b600454600160f81b900460ff16156117985760405162dc149f60e41b815260040160405180910390fd5b600480546001600160f81b0316600160f81b179055600080546001600160a01b038087166001600160a01b03199283161790925560018054868416908316811790915560028054938616939092169290921790556117f757600061186e565b600160009054906101000a90046001600160a01b03166001600160a01b031663b5a488a66040518163ffffffff1660e01b8152600401602060405180830381865afa15801561184a573d6000803e3d6000fd5b505050506040513d601f19601f8201168201806040525081019061186e91906146ad565b600480546001600160a01b03929092166001600160c01b031990921691909117600160a01b63ffffffff841602179055611768611c09565b6001546001600160a01b031633146118d157604051636d5ab9d360e01b815260040160405180910390fd5b80600760008282546118e391906144e0565b909155505050565b6001546001600160a01b0316331461191657604051636d5ab9d360e01b815260040160405180910390fd5b61191e6121e8565b600354600080546040516370a0823160e01b81526001600160a01b039182166004820152919216906370a0823190602401602060405180830381865afa15801561196c573d6000803e3d6000fd5b505050506040513d601f19601f820116820180604052508101906119909190614406565b9050600080600854116119a35781611a28565b611a2883600854600360009054906101000a90046001600160a01b03166001600160a01b03166318160ddd6040518163ffffffff1660e01b8152600401602060405180830381865afa1580156119fd573d6000803e3d6000fd5b505050506040513d601f19601f82011682018060405250810190611a219190614406565b919061313f565b90506000611a36828461317c565b90508015611ad3576000611a4982613192565b600054909150611a62906001600160a01b031682613231565b6003546000546040516376fd4fdf60e01b81526001600160a01b03918216600482015260248101859052600160448201529116906376fd4fdf90606401600060405180830381600087803b158015611ab957600080fd5b505af1158015611acd573d6000803e3d6000fd5b50505050505b611add86866132dd565b60408051868152602081018390526001600160a01b038816917ff08720419d127c00458ef379739e5e4fcd60f014849230afdeec2723a07e7c90910160405180910390a2505050611b2c6122fd565b505050565b611b3a33612323565b611b5757604051637362044160e01b815260040160405180910390fd5b600480546040805163b302f39360e01b815290516001600160a01b039092169263b302f39392828201926000929082900301818387803b15801561175457600080fd5b6000610a9182613311565b6000610a918261239d565b6000611bba6121e8565b611bc48383612a0b565b9050610a916122fd565b6001546001600160a01b03163314611bf957604051636d5ab9d360e01b815260040160405180910390fd5b611c016121e8565b611c09613361565b611c116122fd565b565b611c1b6121e8565b611c288484338585612c3c565b6117686122fd565b600080611c3b6121e8565b670de0b6b3a7640000341015611c6457604051635ab0c99560e11b815260040160405180910390fd5b600354604080516318160ddd60e01b815290516000926001600160a01b0316916318160ddd9160048083019260209291908290030181865afa158015611cae573d6000803e3d6000fd5b505050506040513d601f19601f82011682018060405250810190611cd29190614406565b905080600003611d4357600854341015611cff57604051630dea97f560e41b815260040160405180910390fd5b6000611d09613433565b80516020820151600754929350611d21929190612528565b341015611d4157604051630dea97f560e41b815260040160405180910390fd5b505b6000611d4e346134cd565b905060008111611d715760405163083b70a960e01b815260040160405180910390fd5b6000808311611d81576000611d95565b611d958284611d8e613574565b9190612528565b9050611da133826135a0565b611da9613361565b6003546040516340c10f1960e01b8152336004820152602481018490526000916001600160a01b0316906340c10f19906044016020604051808303816000875af1158015611dfb573d6000803e3d6000fd5b505050506040513d601f19601f82011682018060405250810190611e1f9190614406565b604080513481526020810186905290810182905290915033907f94e36de6c4a79c706685c0b6373d9330bde74971b72f41b7bfdf2c79da2c76669060600160405180910390a29194509092505050611e756122fd565b9091565b611e816121e8565b80600003611ea257604051638b25b00760e01b815260040160405180910390fd5b33600090815260056020526040902054611ebb826135fd565b1315611eda5760405163770876d360e11b815260040160405180910390fd5b600254604051636eb1769f60e11b815233600482015230602482015282916001600160a01b03169063dd62ed3e90604401602060405180830381865afa158015611f28573d6000803e3d6000fd5b505050506040513d601f19601f82011682018060405250810190611f4c9190614406565b1015611f6b5760405163f132b8f960e01b815260040160405180910390fd5b611f753382613231565b611f7f3382613667565b60405181815233907fbe49dd7715eca0763a1208aaaf1219ee7fb10485644b2484057bfc4a438326609060200160405180910390a2610a426122fd565b6001546001600160a01b03163314611fe757604051636d5ab9d360e01b815260040160405180910390fd5b611fef6121e8565b6004546001600160a01b038281169116146113fe57600480546040516370a0823160e01b815230928101929092526000916001600160a01b03909116906370a0823190602401602060405180830381865afa158015612052573d6000803e3d6000fd5b505050506040513d601f19601f820116820180604052508101906120769190614406565b6004805460ff60f01b198116600160f01b178255604051632e1a7d4d60e01b81529293506001600160a01b031691632e1a7d4d916120ba9185910190815260200190565b600060405180830381600087803b1580156120d457600080fd5b505af11580156120e8573d6000803e3d6000fd5b50506004805460ff60f01b1916815560408051630d0e30db60e41b815290516001600160a01b038716945063d0e30db09350859282810192600092919082900301818588803b15801561213a57600080fd5b505af115801561214e573d6000803e3d6000fd5b5050600480546001600160a01b0319166001600160a01b03878116918217835560015460005460405163053fe26160e31b81529083169481019490945260248401929092521693506329ff130892506044019050600060405180830381600087803b1580156121bc57600080fd5b505af11580156121d0573d6000803e3d6000fd5b5050505050610a426122fd565b6000610a918261369c565b7f0cd2207518cd3e5213e2c6dbe63d55b60aa893c194a427b7d7f1600408fd5bde80546001190161222c57604051633ee5aeb560e01b815260040160405180910390fd5b60029055565b8015611b2c5760405163b760faf960e01b81526001600160a01b03838116600483015284169063b760faf99083906024016000604051808303818588803b15801561227c57600080fd5b505af1158015612290573d6000803e3d6000fd5b5050505050505050565b6040516001600160a01b038316602482015260448101829052611b2c90849063a9059cbb60e01b906064015b60408051601f198184030181529190526020810180516001600160e01b03166001600160e01b031990931692909217909152613719565b60017f0cd2207518cd3e5213e2c6dbe63d55b60aa893c194a427b7d7f1600408fd5bde55565b6001546000805460405163d6b93a9f60e01b81526001600160a01b03918216600482015284821660248201529192169063d6b93a9f90604401602060405180830381865afa158015612379573d6000803e3d6000fd5b505050506040513d601f19601f82011682018060405250810190610a9191906146ca565b6001600160a01b03811660009081526005602052604081205481811361242b576003546040516370a0823160e01b81526001600160a01b038581166004830152909116906370a0823190602401602060405180830381865afa158015612407573d6000803e3d6000fd5b505050506040513d601f19601f82011682018060405250810190610c3e9190614406565b60006124368461369c565b9050612440613574565b81111561244f5761244f6146e7565b600061246d8361245e846135fd565b61246891906146fd565b6137ee565b90508060000361248257506000949350505050565b6125058161248e613574565b600360009054906101000a90046001600160a01b03166001600160a01b03166318160ddd6040518163ffffffff1660e01b8152600401602060405180830381865afa1580156124e1573d6000803e3d6000fd5b505050506040513d601f19601f82011682018060405250810190611d8e9190614406565b95945050505050565b600081831161251e576000610c3e565b610c3e82846144cd565b600080821161254a576040516323d359a360e01b815260040160405180910390fd5b8360000361255a57506000610c3e565b8383028385828161256d5761256d614724565b040361258b5782818161258257612582614724565b04915050610c3e565b506000612598838661473a565b905060006125a6848761474e565b905060006125b4858761473a565b905060006125c2868861474e565b9050856125cf8285614762565b6125d9919061473a565b6125e38385614762565b6125ed8387614762565b886125f88689614762565b6126029190614762565b61260c91906144e0565b61261691906144e0565b61262091906144e0565b98975050505050505050565b600080612637613433565b905060006126436137ff565b9050600061264f613892565b90506000612661848360085486613904565b156126b5576126ae8284866000015161267a9190614762565b6127108960085461268b91906144cd565b886020015161269a9190614762565b6126a49190614762565b610ba6919061473a565b90506126c8565b6008546126c5908390889061313f565b90505b61274881600160009054906101000a90046001600160a01b03166001600160a01b031663531090f36040518163ffffffff1660e01b8152600401602060405180830381865afa15801561271f573d6000803e3d6000fd5b505050506040513d601f19601f820116820180604052508101906127439190614406565b61393a565b9695505050505050565b600080516020614892833981519152546001600160a01b031690565b6001546001600160a01b03163314610a4257604051636d5ab9d360e01b815260040160405180910390fd5b7f4910fdfa16fed3260ed0e7147f7cc6da11a60208b5b9406d12a635614ffd91435460ff16156127cc57611b2c83613971565b826001600160a01b03166352d1902d6040518163ffffffff1660e01b8152600401602060405180830381865afa925050508015612826575060408051601f3d908101601f1916820190925261282391810190614406565b60015b6128895760405162461bcd60e51b815260206004820152602e60248201527f45524331393637557067726164653a206e657720696d706c656d656e7461746960448201526d6f6e206973206e6f74205555505360901b6064820152608401610d04565b60008051602061489283398151915281146128f85760405162461bcd60e51b815260206004820152602960248201527f45524331393637557067726164653a20756e737570706f727465642070726f786044820152681a58589b195555525160ba1b6064820152608401610d04565b50611b2c838383613a0d565b6000821161292557604051638ad31ccd60e01b815260040160405180910390fd5b600061293033613311565b90508083111561295357604051630913cfff60e31b815260040160405180910390fd5b61295d33846135a0565b6129678284613a32565b60405183815233907f978fa3ac63a72e6050ed3f73d10641e11ce35173622e3bc4c02bef262ce58a00906020015b60405180910390a2505050565b600063ffffffff821115612a075760405162461bcd60e51b815260206004820152602660248201527f53616665436173743a2076616c756520646f65736e27742066697420696e203360448201526532206269747360d01b6064820152608401610d04565b5090565b6000808311612a2d5760405163d9ebc7e560e01b815260040160405180910390fd5b6003546040516370a0823160e01b81523360048201526001600160a01b03909116906370a0823190602401602060405180830381865afa158015612a75573d6000803e3d6000fd5b505050506040513d601f19601f82011682018060405250810190612a999190614406565b831115612ab957604051638cf2559760e01b815260040160405180910390fd5b612ac283613a66565b6000612b1b84600360009054906101000a90046001600160a01b03166001600160a01b03166318160ddd6040518163ffffffff1660e01b8152600401602060405180830381865afa158015610c05573d6000803e3d6000fd5b905060008111612b3e57604051634e9d913960e01b815260040160405180910390fd5b612b4781613b12565b612b5081613b54565b612b6d576040516319bcc3f160e21b815260040160405180910390fd5b6000612b7885613192565b9050612b843382613231565b6003546040516376fd4fdf60e01b815233600482015260248101879052600060448201526001600160a01b03909116906376fd4fdf90606401600060405180830381600087803b158015612bd757600080fd5b505af1158015612beb573d6000803e3d6000fd5b50505050612bf98483613b84565b604080518681526020810184905233917f37d7eb0f99dccc66b2bf9cd0ae85d1e5c096cc027e5bf574e6df7e5a462661c8910160405180910390a2509392505050565b60008511612c5d5760405163d9ebc7e560e01b815260040160405180910390fd5b6003546040516370a0823160e01b81523360048201526001600160a01b03909116906370a0823190602401602060405180830381865afa158015612ca5573d6000803e3d6000fd5b505050506040513d601f19601f82011682018060405250810190612cc99190614406565b851115612ce957604051638cf2559760e01b815260040160405180910390fd5b612cf285613a66565b6000612d4b86600360009054906101000a90046001600160a01b03166001600160a01b03166318160ddd6040518163ffffffff1660e01b8152600401602060405180830381865afa158015610c05573d6000803e3d6000fd5b905060008111612d6e57604051634e9d913960e01b815260040160405180910390fd5b612d7781613b12565b60015460008054604051631e8bee0160e01b81526001600160a01b03918216600482015291921690631e8bee0190602401602060405180830381865afa158015612dc5573d6000803e3d6000fd5b505050506040513d601f19601f82011682018060405250810190612de99190614406565b90506000612df68361262c565b9050808211612e1857604051631d7154c160e01b815260040160405180910390fd5b6000612e2389613192565b600254604051636eb1769f60e11b815233600482015230602482015291925083916001600160a01b039091169063dd62ed3e90604401602060405180830381865afa158015612e76573d6000803e3d6000fd5b505050506040513d601f19601f82011682018060405250810190612e9a9190614406565b1015612eb95760405163f132b8f960e01b815260040160405180910390fd5b600254612ed1906001600160a01b0316333085613c25565b6001821561306157600160009054906101000a90046001600160a01b03166001600160a01b0316634942f65f6040518163ffffffff1660e01b8152600401602060405180830381865afa158015612f2c573d6000803e3d6000fd5b505050506040513d601f19601f82011682018060405250810190612f509190614406565b831080612f5a5750885b15612fd457600154600054604051630ed000b360e41b81526001600160a01b0391821660048201528a821660248201526044810186905291169063ed000b3090606401600060405180830381600087803b158015612fb757600080fd5b505af1158015612fcb573d6000803e3d6000fd5b50505050613061565b506001546001600160a01b0386811615911663997be0f482612ff65734612ff9565b60005b6000546040516001600160e01b031960e085901b16815261302e916001600160a01b0316908d9089908e908e906004016147c9565b6000604051808303818588803b15801561304757600080fd5b505af115801561305b573d6000803e3d6000fd5b50505050505b61306b3383613231565b6003546040516376fd4fdf60e01b8152336004820152602481018c9052600060448201526001600160a01b03909116906376fd4fdf90606401600060405180830381600087803b1580156130be57600080fd5b505af11580156130d2573d6000803e3d6000fd5b505050506130e08886613b84565b80156130f0576130f08834613c5d565b604080518b81526020810187905290810184905233907f99dbaaeda09e94bf56b15a34cfa3e365ad448c713e353da71716912980431ae39060600160405180910390a250505050505050505050565b60008061314d858585612528565b90506000838061315f5761315f614724565b858709905080156131735781600101612748565b50949350505050565b600081831061318b5781610c3e565b5090919050565b6000816000036131a457506000919050565b600354604080516318160ddd60e01b815290516000926001600160a01b0316916318160ddd9160048083019260209291908290030181865afa1580156131ee573d6000803e3d6000fd5b505050506040513d601f19601f820116820180604052508101906132129190614406565b905080831115613224576132246146e7565b610c3e8382611d8e613574565b8060000361323d575050565b6000613248826135fd565b6001600160a01b0384166000908152600560205260408120805492935083929091906132759084906146fd565b92505081905550806006600082825461328e91906146fd565b90915550506001600160a01b0383166000818152600560209081526040918290205491519182527f401cde8821e5ecc004ba2668055ad85125097beeab812601b785ec90eb6a47a79101612995565b80156110b15780600860008282546132f591906144cd565b90915550506004546110b1906001600160a01b0316838361229a565b6000806133256133208461369c565b6135fd565b6001600160a01b03841660009081526005602052604081205491925061334b82846146fd565b9050612505613359826137ee565b60075461317c565b3415611c1157346008600082825461337991906144e0565b90915550506004805460408051630d0e30db60e41b815290516001600160a01b039092169263d0e30db0923492808301926000929182900301818588803b1580156133c357600080fd5b505af11580156133d7573d6000803e3d6000fd5b50506001546000546004805460405163053fe26160e31b81526001600160a01b039384169281019290925282166024820152911693506329ff130892506044019050600060405180830381600087803b15801561175457600080fd5b604080518082019091526000808252602082015260015460408051628c4abb60e21b8152815160009384936001600160a01b03909116926302312aec92600480830193928290030181865afa158015613490573d6000803e3d6000fd5b505050506040513d601f19601f820116820180604052508101906134b49190614816565b6040805180820190915291825260208201529392505050565b600080600360009054906101000a90046001600160a01b03166001600160a01b03166318160ddd6040518163ffffffff1660e01b8152600401602060405180830381865afa158015613523573d6000803e3d6000fd5b505050506040513d601f19601f820116820180604052508101906135479190614406565b905060085460001480613558575080155b15613564575090919050565b600854610c3e9082908590612528565b6000806006546135856007546135fd565b61358f919061483a565b905061359a81613ce5565b91505090565b806000036135ac575050565b60006135b7826135fd565b6001600160a01b0384166000908152600560205260408120805492935083929091906135e490849061483a565b92505081905550806006600082825461328e919061483a565b60006001600160ff1b03821115612a075760405162461bcd60e51b815260206004820152602860248201527f53616665436173743a2076616c756520646f65736e27742066697420696e2061604482015267371034b73a191a9b60c11b6064820152608401610d04565b80156110b157806007600082825461367f91906144e0565b90915550506002546110b1906001600160a01b0316833084613c25565b6003546040516370a0823160e01b81526001600160a01b03838116600483015260009283929116906370a0823190602401602060405180830381865afa1580156136ea573d6000803e3d6000fd5b505050506040513d601f19601f8201168201806040525081019061370e9190614406565b9050610c3e81613192565b600061376e826040518060400160405280602081526020017f5361666545524332303a206c6f772d6c6576656c2063616c6c206661696c6564815250856001600160a01b0316613d379092919063ffffffff16565b905080516000148061378f57508080602001905181019061378f91906146ca565b611b2c5760405162461bcd60e51b815260206004820152602a60248201527f5361666545524332303a204552433230206f7065726174696f6e20646964206e6044820152691bdd081cdd58d8d9595960b21b6064820152608401610d04565b600080821215612a07576000610a91565b6001546000805460405163cd71593560e01b81526001600160a01b0391821660048201529192839291169063cd71593590602401602060405180830381865afa158015613850573d6000803e3d6000fd5b505050506040513d601f19601f820116820180604052508101906138749190614406565b60045490915061359a908290600160a01b900463ffffffff16613d46565b6001546000805460405163769bb15560e11b81526001600160a01b0391821660048201529192169063ed3762aa90602401602060405180830381865afa1580156138e0573d6000803e3d6000fd5b505050506040513d601f19601f820116820180604052508101906113e79190614406565b60006139208286600001518661391a9190614762565b90613d55565b602086015161392f9085614762565b101595945050505050565b600080613947838561474e565b90508015613969578261395a82866144cd565b61396491906144e0565b6113d5565b509192915050565b6001600160a01b0381163b6139de5760405162461bcd60e51b815260206004820152602d60248201527f455243313936373a206e657720696d706c656d656e746174696f6e206973206e60448201526c1bdd08184818dbdb9d1c9858dd609a1b6064820152608401610d04565b60008051602061489283398151915280546001600160a01b0319166001600160a01b0392909216919091179055565b613a1683613d64565b600082511180613a235750805b15611b2c576117688383613da4565b80156110b1578060076000828254613a4a91906144cd565b90915550506002546110b1906001600160a01b0316838361229a565b600354604080516318160ddd60e01b815290516000926001600160a01b0316916318160ddd9160048083019260209291908290030181865afa158015613ab0573d6000803e3d6000fd5b505050506040513d601f19601f82011682018060405250810190613ad49190614406565b905081811480613af55750670de0b6b3a7640000613af283836144cd565b10155b6110b157604051633b9c256f60e01b815260040160405180910390fd5b806008541480613b375750670de0b6b3a764000081600854613b3491906144cd565b10155b610a425760405163d4f24daf60e01b815260040160405180910390fd5b6000610a91613b61613433565b613b69613892565b84600854613b7791906144cd565b613b7f6137ff565b613904565b80156110b1578060086000828254613b9c91906144cd565b909155505060048054600160f01b60ff60f01b198216178255604051632e1a7d4d60e01b81529182018390526001600160a01b031690632e1a7d4d90602401600060405180830381600087803b158015613bf557600080fd5b505af1158015613c09573d6000803e3d6000fd5b50506004805460ff60f01b19169055506110b190508282613c5d565b6040516001600160a01b03808516602483015283166044820152606481018290526117689085906323b872dd60e01b906084016122c6565b613c65613dc9565b80156110b1576000826001600160a01b031682620186a090604051600060405180830381858888f193505050503d8060008114613cbe576040519150601f19603f3d011682016040523d82523d6000602084013e613cc3565b606091505b5050905080611b2c576040516312171d8360e31b815260040160405180910390fd5b600080821215612a075760405162461bcd60e51b815260206004820181905260248201527f53616665436173743a2076616c7565206d75737420626520706f7369746976656044820152606401610d04565b60606113d58484600085613e0b565b600081831161318b5781610c3e565b6000610c3e8383612710612528565b613d6d81613971565b6040516001600160a01b038216907fbc7cd75a20ee27fd9adebab32041f755214dbc6bffa90cc0225b39da2e5c2d3b90600090a250565b6060610c3e83836040518060600160405280602781526020016148b260279139613ee6565b7f0cd2207518cd3e5213e2c6dbe63d55b60aa893c194a427b7d7f1600408fd5bde54600214611c1157604051635bff566960e01b815260040160405180910390fd5b606082471015613e6c5760405162461bcd60e51b815260206004820152602660248201527f416464726573733a20696e73756666696369656e742062616c616e636520666f6044820152651c8818d85b1b60d21b6064820152608401610d04565b600080866001600160a01b03168587604051613e889190614862565b60006040518083038185875af1925050503d8060008114613ec5576040519150601f19603f3d011682016040523d82523d6000602084013e613eca565b606091505b5091509150613edb87838387613f50565b979650505050505050565b6060600080856001600160a01b031685604051613f039190614862565b600060405180830381855af49150503d8060008114613f3e576040519150601f19603f3d011682016040523d82523d6000602084013e613f43565b606091505b5091509150612748868383875b60608315613fbf578251600003613fb8576001600160a01b0385163b613fb85760405162461bcd60e51b815260206004820152601d60248201527f416464726573733a2063616c6c20746f206e6f6e2d636f6e74726163740000006044820152606401610d04565b50816113d5565b6113d58383815115613fd45781518083602001fd5b8060405162461bcd60e51b8152600401610d04919061487e565b6001600160a01b0381168114610a4257600080fd5b60006020828403121561401557600080fd5b8135610c3e81613fee565b60006020828403121561403257600080fd5b81356001600160e01b031981168114610c3e57600080fd5b6000806040838503121561405d57600080fd5b823561406881613fee565b946020939093013593505050565b60006020828403121561408857600080fd5b5035919050565b634e487b7160e01b600052604160045260246000fd5b60008067ffffffffffffffff8411156140c0576140c061408f565b50604051601f19601f85018116603f0116810181811067ffffffffffffffff821117156140ef576140ef61408f565b60405283815290508082840185101561410757600080fd5b83836020830137600060208583010152509392505050565b6000806040838503121561413257600080fd5b823561413d81613fee565b9150602083013567ffffffffffffffff81111561415957600080fd5b8301601f8101851361416a57600080fd5b614179858235602084016140a5565b9150509250929050565b803562ffffff8116811461156c57600080fd5b600080600080606085870312156141ac57600080fd5b84356141b781613fee565b93506141c560208601614183565b9250604085013567ffffffffffffffff8111156141e157600080fd5b8501601f810187136141f257600080fd5b803567ffffffffffffffff81111561420957600080fd5b8760208260051b840101111561421e57600080fd5b949793965060200194505050565b8015158114610a4257600080fd5b600082601f83011261424b57600080fd5b610c3e838335602085016140a5565b600080600080600060a0868803121561427257600080fd5b8535945060208601356142848161422c565b9350604086013561429481613fee565b9250606086013567ffffffffffffffff8111156142b057600080fd5b6142bc8882890161423a565b92505060808601356142cd81613fee565b809150509295509295909350565b600080604083850312156142ee57600080fd5b82359150602083013561430081613fee565b809150509250929050565b6000806000806080858703121561432157600080fd5b843561432c81613fee565b9350602085013561433c81613fee565b9250604085013561434c81613fee565b9150606085013563ffffffff8116811461436557600080fd5b939692955090935050565b60008060006060848603121561438557600080fd5b833561439081613fee565b95602085013595506040909401359392505050565b600080600080608085870312156143bb57600080fd5b8435935060208501356143cd8161422c565b9250604085013567ffffffffffffffff8111156143e957600080fd5b6143f58782880161423a565b925050606085013561436581613fee565b60006020828403121561441857600080fd5b5051919050565b6020808252602c908201527f46756e6374696f6e206d7573742062652063616c6c6564207468726f7567682060408201526b19195b1959d85d1958d85b1b60a21b606082015260800190565b6020808252602c908201527f46756e6374696f6e206d7573742062652063616c6c6564207468726f7567682060408201526b6163746976652070726f787960a01b606082015260800190565b634e487b7160e01b600052601160045260246000fd5b81810381811115610a9157610a916144b7565b80820180821115610a9157610a916144b7565b62ffffff61450082614183565b16825260208101356bffffffffffffffffffffffff19811680821461452457600080fd5b60208401525060408101356effffffffffffffffffffffffffffff811680821461454d57600080fd5b60408401525060608101356005811061456557600080fd5b6005811061458357634e487b7160e01b600052602160045260246000fd5b806060840152505050565b6001600160a01b0387811682528616602082015262ffffff85166040820152831515606082015260a0608082018190528101829052600060c0600584901b830181019083018583609e1936839003015b8782101561469c5786850360bf1901845282358181126145fd57600080fd5b8901803536829003601e1901811261461457600080fd5b810160208101903567ffffffffffffffff81111561463157600080fd5b8060051b80360383131561464457600080fd5b60a0808a5289018290526001600160fb1b0382111561466257600080fd5b808360c08b013761467960208a01602086016144f3565b60c0818a01019850505050506020830192506020840193506001820191506145de565b50929b9a5050505050505050505050565b6000602082840312156146bf57600080fd5b8151610c3e81613fee565b6000602082840312156146dc57600080fd5b8151610c3e8161422c565b634e487b7160e01b600052600160045260246000fd5b818103600083128015838313168383128216171561471d5761471d6144b7565b5092915050565b634e487b7160e01b600052601260045260246000fd5b60008261474957614749614724565b500490565b60008261475d5761475d614724565b500690565b8082028115828204841417610a9157610a916144b7565b60005b8381101561479457818101518382015260200161477c565b50506000910152565b600081518084526147b5816020860160208601614779565b601f01601f19169290920160200192915050565b6001600160a01b038681168252851660208201526040810184905260a0606082018190526000906147fc9083018561479d565b905060018060a01b03831660808301529695505050505050565b6000806040838503121561482957600080fd5b505080516020909101519092909150565b808201828112600083128015821682158216171561485a5761485a6144b7565b505092915050565b60008251614874818460208701614779565b9190910192915050565b602081526000610c3e602083018461479d56fe360894a13ba1a3210667c828492db98dca3e2076cc3735a920a3ca505d382bbc416464726573733a206c6f772d6c6576656c2064656c65676174652063616c6c206661696c6564a26469706673582212200d6123509b50ae680be35b9d3b38a5573e8d430f491397e4f6a2391c0ea4e39964736f6c634300081b0033",
  "linkReferences": {},
  "deployedLinkReferences": {}
}