{
  "_format": "hh-sol-artifact-1",
  "contractName": "FdcHubMock",
  "sourceName": "contracts/fdc/mock/FdcHubMock.sol",
  "abi": [
    {
      "inputs": [],
      "stateMutability": "nonpayable",
      "type": "constructor"
    },
    {
      "anonymous": false,
      "inputs": [
        {
          "indexed": false,
          "internalType": "bytes",
          "name": "data",
          "type": "bytes"
        },
        {
          "indexed": false,
          "internalType": "uint256",
          "name": "fee",
          "type": "uint256"
        }
      ],
      "name": "AttestationRequest",
      "type": "event"
    },
    {
      "anonymous": false,
      "inputs": [
        {
          "indexed": true,
          "internalType": "uint24",
          "name": "rewardEpochId",
          "type": "uint24"
        },
        {
          "components": [
            {
              "internalType": "bytes32",
              "name": "attestationType",
              "type": "bytes32"
            },
            {
              "internalType": "bytes32",
              "name": "source",
              "type": "bytes32"
            },
            {
              "internalType": "uint24",
              "name": "inflationShare",
              "type": "uint24"
            },
            {
              "internalType": "uint8",
              "name": "minRequestsThreshold",
              "type": "uint8"
            },
            {
              "internalType": "uint224",
              "name": "mode",
              "type": "uint224"
            }
          ],
          "indexed": false,
          "internalType": "struct IFdcInflationConfigurations.FdcConfiguration[]",
          "name": "fdcConfigurations",
          "type": "tuple[]"
        },
        {
          "indexed": false,
          "internalType": "uint256",
          "name": "amount",
          "type": "uint256"
        }
      ],
      "name": "InflationRewardsOffered",
      "type": "event"
    },
    {
      "anonymous": false,
      "inputs": [
        {
          "indexed": false,
          "internalType": "uint8",
          "name": "requestsOffsetSeconds",
          "type": "uint8"
        }
      ],
      "name": "RequestsOffsetSet",
      "type": "event"
    },
    {
      "inputs": [],
      "name": "fdcInflationConfigurations",
      "outputs": [
        {
          "internalType": "contract IFdcInflationConfigurations",
          "name": "",
          "type": "address"
        }
      ],
      "stateMutability": "view",
      "type": "function"
    },
    {
      "inputs": [],
      "name": "fdcRequestFeeConfigurations",
      "outputs": [
        {
          "internalType": "contract IFdcRequestFeeConfigurations",
          "name": "",
          "type": "address"
        }
      ],
      "stateMutability": "view",
      "type": "function"
    },
    {
      "inputs": [
        {
          "internalType": "bytes",
          "name": "_data",
          "type": "bytes"
        }
      ],
      "name": "requestAttestation",
      "outputs": [],
      "stateMutability": "payable",
      "type": "function"
    },
    {
      "inputs": [],
      "name": "requestsOffsetSeconds",
      "outputs": [
        {
          "internalType": "uint8",
          "name": "",
          "type": "uint8"
        }
      ],
      "stateMutability": "pure",
      "type": "function"
    }
  ],
  "bytecode": "0x6080604052348015600f57600080fd5b50604051601a90605a565b604051809103906000f0801580156035573d6000803e3d6000fd5b50600080546001600160a01b0319166001600160a01b03929092169190911790556067565b6101158061025e83390190565b6101e8806100766000396000f3fe60806040526004361061003f5760003560e01c8063116ea702146100445780634c5a1d28146100815780636238f3541461009557806394d019f1146100aa575b600080fd5b34801561005057600080fd5b50600054610064906001600160a01b031681565b6040516001600160a01b0390911681526020015b60405180910390f35b34801561008d57600080fd5b506000610064565b6100a86100a3366004610105565b6100c6565b005b3480156100b657600080fd5b5060405160008152602001610078565b7f251377668af6553101c9bb094ba89c0c536783e005e203625e6cd57345918cc98282346040516100f993929190610179565b60405180910390a15050565b6000806020838503121561011857600080fd5b823567ffffffffffffffff81111561012f57600080fd5b8301601f8101851361014057600080fd5b803567ffffffffffffffff81111561015757600080fd5b85602082840101111561016957600080fd5b6020919091019590945092505050565b604081528260408201528284606083013760006060848301015260006060601f19601f860116830101905082602083015294935050505056fea2646970667358221220859b6496c4efd98983ab196ea7947b4f5da2ba537a52d958d9efc53366ff8d3864736f6c634300081b00336080604052348015600f57600080fd5b5060f78061001e6000396000f3fe6080604052348015600f57600080fd5b506004361060285760003560e01c80630a0f247614602d575b600080fd5b604060383660046052565b600092915050565b60405190815260200160405180910390f35b60008060208385031215606457600080fd5b823567ffffffffffffffff811115607a57600080fd5b8301601f81018513608a57600080fd5b803567ffffffffffffffff81111560a057600080fd5b85602082840101111560b157600080fd5b602091909101959094509250505056fea2646970667358221220441fc2922ae130987260183aff2a567e7781349476691b2ca0453f0fa4f7456b64736f6c634300081b0033",
  "linkReferences": {},
  "deployedLinkReferences": {}
}